:100000000C945D000C9485000C9485000C94850084
:100010000C9485000C9485000C9485000C9485004C
:100020000C9485000C9485000C9485000C9485003C
:100030000C9485000C9485000C9485000C9485002C
:100040000C943C020C9485000C94AC020C94860237
:100050000C9485000C9485000C9485000C9485000C
:100060000C9485000C94850000000008000201003B
:100070000003040700000000000000000000000072
:10008000250028002B0000000000240027002A0083
:10009000040404040404040402020202020203032E
:1000A0000303030301020408102040800102040836
:1000B0001020010204081020DE0211241FBECFEF21
:1000C000D8E0DEBFCDBF11E0A0E0B1E0E4E6F9E0AA
:1000D00002C005900D92A434B107D9F721E0A4E441
:1000E000B1E001C01D92AF3EB207E1F710E0CDE5EF
:1000F000D0E004C02197FE010E94AA04CC35D107AC
:10010000C9F70E940B030C94B0040C940000AF924A
:10011000BF92CF92DF92EF92FF920F931F93CF93F4
:10012000DF936C017B018B01040F151FEB015E0156
:10013000AE18BF08C017D10759F06991D601ED91EB
:10014000FC910190F081E02DC6010995892B79F78A
:10015000C501DF91CF911F910F91FF90EF90DF903C
:10016000CF90BF90AF900895FC01538D448D252F03
:1001700030E0842F90E0821B930B541710F0CF9641
:10018000089501970895FC01918D828D981761F073
:10019000A28DAE0FBF2FB11D5D968C91928D9F5F8A
:1001A0009F73928F90E008958FEF9FEF0895FC0169
:1001B000918D828D981731F0828DE80FF11D858D1C
:1001C00090E008958FEF9FEF0895FC01918D228DAF
:1001D000892F90E0805C9F4F821B91098F73992734
:1001E000089582E591E00E94E50021E0892B09F461
:1001F00020E0822F089580E090E0892B29F00E9472
:10020000F10081110C9400000895FC01A48DA80F49
:10021000B92FB11DA35ABF4F2C91848D90E0019648
:100220008F739927848FA689B7892C93A089B18968
:100230008C91837080648C93938D848D981306C009
:100240000288F389E02D80818F7D80830895EF926D
:10025000FF920F931F93CF93DF93EC0181E0888F80
:100260009B8D8C8D98131AC0E889F989808185FF50
:1002700015C09FB7F894EE89FF896083E889F989F2
:1002800080818370806480839FBF81E090E0DF91F4
:10029000CF911F910F91FF90EF900895F62E0B8D47
:1002A00010E00F5F1F4F0F731127E02E8C8D8E1102
:1002B0000CC00FB607FCFACFE889F989808185FF69
:1002C000F5CFCE010E940501F1CFEB8DEC0FFD2F94
:1002D000F11DE35AFF4FF0829FB7F8940B8FEA8924
:1002E000FB8980818062CFCFCF93DF93EC01888D33
:1002F0008823B9F0AA89BB89E889F9898C9185FDA1
:1003000003C0808186FD0DC00FB607FCF7CF8C912E
:1003100085FFF2CF808185FFEDCFCE010E940501E0
:10032000E9CFDF91CF910895FC0101900020E9F71A
:100330003197AF01481B590BBC0182E591E00C9449
:100340008700CF93DF930E949401EC0182E191E05A
:100350000E9494018C0F9D1FDF91CF9108958F9281
:100360009F92AF92BF92CF92DF92EF92FF920F9344
:100370001F93CF93DF93CDB7DEB7A1970FB6F89455
:10038000DEBF0FBECDBF6B017C01F7FE41C06DE249
:1003900082E591E00E9427018C0122273327A901E1
:1003A0002C193D094E095F0919A2CE0181967C01E5
:1003B0009AE0892E912CA12CB12CCA01B901A5017A
:1003C00094010E948804605DF70162937F0121150A
:1003D00031054105510589F790E080E0309719F02B
:1003E000CF010E949401800F911FA1960FB6F8943F
:1003F000DEBF0FBECDBFDF91CF911F910F91FF9058
:10040000EF90DF90CF90BF90AF909F908F90089526
:10041000AC019B0119A28E010F5D1F4F8AE0C82E0F
:10042000D12CE12CF12CCA01B901A70196010E943F
:100430008804605DF80162938F0121153105410543
:10044000510589F790E080E0309779F2CF010E9462
:100450009401CBCFCF93DF93BC01990F880B990BFD
:100460000E94AF01EC0182E191E00E9494018C0FA7
:100470009D1FDF91CF9108951F920F920FB60F929B
:1004800011242F933F938F939F93AF93BF938091AA
:100490004E0190914F01A0915001B09151013091C6
:1004A0004D0123E0230F2D3758F50196A11DB11DF5
:1004B00020934D0180934E0190934F01A0935001E2
:1004C000B09351018091490190914A01A0914B0153
:1004D000B0914C010196A11DB11D809349019093EB
:1004E0004A01A0934B01B0934C01BF91AF919F91F2
:1004F0008F913F912F910F900FBE0F901F901895E5
:1005000026E8230F0296A11DB11DD2CF1F920F9294
:100510000FB60F9211242F933F934F935F936F93D6
:100520007F938F939F93AF93BF93EF93FF9382E556
:1005300091E00E940501FF91EF91BF91AF919F91D2
:100540008F917F916F915F914F913F912F910F907C
:100550000FBE0F901F9018951F920F920FB60F921B
:1005600011242F938F939F93EF93FF93E091620158
:10057000F09163018081E0916801F091690182FD51
:100580001BC0908180916B018F5F8F7320916C01F4
:10059000821741F0E0916B01F0E0EE5AFE4F958F2B
:1005A00080936B01FF91EF919F918F912F910F900D
:1005B0000FBE0F901F9018958081F4CFE2E5F1E017
:1005C0001382128288EE93E0A0E0B0E084839583EA
:1005D000A683B78384E091E09183808385EC90E0EB
:1005E0009587848784EC90E09787868780EC90E0FD
:1005F000918B808B81EC90E0938B828B82EC90E0EE
:10060000958B848B86EC90E0978B868B118E128E67
:10061000138E148E0895789484B5826084BD84B559
:10062000816084BD85B5826085BD85B5816085BDED
:1006300080916E00816080936E00109281008091A5
:10064000810082608093810080918100816080932D
:100650008100809180008160809380008091B10052
:1006600084608093B1008091B00081608093B0007D
:1006700080917A00846080937A0080917A00826011
:1006800080937A0080917A00816080937A008091D3
:100690007A00806880937A001092C100E091620134
:1006A000F091630182E08083E0915E01F0915F014F
:1006B0001082E0916001F091610180E180831092ED
:1006C0006A01E0916601F091670186E08083E09124
:1006D0006401F0916501808180618083E091640113
:1006E000F0916501808188608083E0916401F091E0
:1006F0006501808180688083E0916401F0916501EB
:1007000080818F7D8083C0E0D0E082E591E00E940F
:10071000E500181619069CF4009147011091480154
:1007200082E591E00E94C30098012F5F3F4F309314
:10073000480120934701F801EC5BFE4F80838091D4
:10074000470190914801039721F560914401062EDD
:10075000000C770B880B990B0E94AF01609145014B
:10076000062E000C770B880B990B0E94AF0180912D
:100770004601082E000C990B0E942A028091440128
:10078000882391F0813009F462C0109248011092E0
:100790004701209709F4B9CF0E94F100882309F49A
:1007A000B4CF0E940000B1CF80914601082F082EDF
:1007B000000C110BF090450190E0FC01EC55FF4F4F
:1007C000249180579F4FFC0184918823D9F090E0B9
:1007D000880F991FFC01EA57FF4FA591B491FC01C6
:1007E000E458FF4F85919491F1101CC04FB7F894D5
:1007F0003C91E22FE0953E233C93DC012C912E238B
:100800002C934FBF8BE291E00E94A101C8010E948E
:100810002A0285E191E0F11002C08CE191E00E9492
:10082000A101B3CFE2E0FE120BC04FB7F8945C9188
:10083000322F309535233C93DC01EC912E2BE0CF09
:100840008FB7F894EC912E2B2C938FBFDBCFF090C9
:10085000460180914501082F082E000C110B90E0F5
:10086000FC01E859FF4F2491FC01EC55FF4F3491F6
:10087000FC01E057FF4FE491EE23C9F0222339F049
:10088000233069F110F5213081F1223091F1F0E04F
:10089000EE0FFF1FE458FF4FA591B4918FB7F89466
:1008A000EC91F11033C030953E233C938FBF85E32C
:1008B00091E00E94A101C8010E942A0282E291E017
:1008C000F110ADCF87E291E0AACF2730A9F0283010
:1008D000C9F02430E1F6809180008F7D03C08091C3
:1008E00080008F7780938000D2CF84B58F7784BDCE
:1008F000CECF84B58F7DFBCF8091B0008F77809372
:10090000B000C5CF8091B0008F7DF9CF3E2BCDCF09
:10091000A1E21A2EAA1BBB1BFD010DC0AA1FBB1F03
:10092000EE1FFF1FA217B307E407F50720F0A21B75
:10093000B30BE40BF50B661F771F881F991F1A94E2
:1009400069F760957095809590959B01AC01BD010C
:10095000CF010895EE0FFF1F0590F491E02D09944B
:04096000F894FFCF39
:100964000000000027018700B4007401E500C30003
:10097400D7000D0A004F555450555400494E505558
:10098400540048696768004C6F770050696E4D6F7A
:1009940064653A20004469676974616C57726974CC
:0409A400653A200090
:107E0000112484B714BE81FFF0D085E080938100F7
:107E100082E08093C00088E18093C10086E0809377
:107E2000C20080E18093C4008EE0C9D0259A86E02C
:107E300020E33CEF91E0309385002093840096BBD3
:107E4000B09BFECF1D9AA8958150A9F7CC24DD24C4
:107E500088248394B5E0AB2EA1E19A2EF3E0BF2EE7
:107E6000A2D0813461F49FD0082FAFD0023811F036
:107E7000013811F484E001C083E08DD089C08234E0
:107E800011F484E103C0853419F485E0A6D080C0E4
:107E9000853579F488D0E82EFF2485D0082F10E0AE
:107EA000102F00270E291F29000F111F8ED06801E7
:107EB0006FC0863521F484E090D080E0DECF843638
:107EC00009F040C070D06FD0082F6DD080E0C81688
:107ED00080E7D80618F4F601B7BEE895C0E0D1E017
:107EE00062D089930C17E1F7F0E0CF16F0E7DF06D8
:107EF00018F0F601B7BEE89568D007B600FCFDCFD4
:107F0000A601A0E0B1E02C9130E011968C91119780
:107F100090E0982F8827822B932B1296FA010C0160
:107F200087BEE89511244E5F5F4FF1E0A038BF0790
:107F300051F7F601A7BEE89507B600FCFDCF97BE46
:107F4000E89526C08437B1F42ED02DD0F82E2BD052
:107F50003CD0F601EF2C8F010F5F1F4F84911BD097
:107F6000EA94F801C1F70894C11CD11CFA94CF0C13
:107F7000D11C0EC0853739F428D08EE10CD085E9AC
:107F80000AD08FE07ACF813511F488E018D01DD067
:107F900080E101D065CF982F8091C00085FFFCCF94
:107FA0009093C60008958091C00087FFFCCF809118
:107FB000C00084FD01C0A8958091C6000895E0E648
:107FC000F0E098E1908380830895EDDF803219F02E
:107FD00088E0F5DFFFCF84E1DECF1F93182FE3DFCA
:107FE0001150E9F7F2DF1F91089580E0E8DFEE27F6
:047FF000FF270994CA
:027FFE00040479
:0400000300007E007B
:00000001FF
